{
  "_format": "hh-sol-artifact-1",
  "contractName": "EnergyToken",
  "sourceName": "contracts/EnergyToken.sol",
  "abi": [
    {
      "inputs": [],
      "stateMutability": "nonpayable",
      "type": "constructor"
    },
    {
      "anonymous": false,
      "inputs": [
        {
          "indexed": true,
          "internalType": "address",
          "name": "owner",
          "type": "address"
        },
        {
          "indexed": true,
          "internalType": "address",
          "name": "spender",
          "type": "address"
        },
        {
          "indexed": false,
          "internalType": "uint256",
          "name": "value",
          "type": "uint256"
        }
      ],
      "name": "Approval",
      "type": "event"
    },
    {
      "anonymous": false,
      "inputs": [
        {
          "indexed": true,
          "internalType": "address",
          "name": "previousOwner",
          "type": "address"
        },
        {
          "indexed": true,
          "internalType": "address",
          "name": "newOwner",
          "type": "address"
        }
      ],
      "name": "OwnershipTransferred",
      "type": "event"
    },
    {
      "anonymous": false,
      "inputs": [
        {
          "indexed": false,
          "internalType": "address",
          "name": "account",
          "type": "address"
        }
      ],
      "name": "Paused",
      "type": "event"
    },
    {
      "anonymous": false,
      "inputs": [
        {
          "indexed": true,
          "internalType": "address",
          "name": "from",
          "type": "address"
        },
        {
          "indexed": true,
          "internalType": "address",
          "name": "to",
          "type": "address"
        },
        {
          "indexed": false,
          "internalType": "uint256",
          "name": "value",
          "type": "uint256"
        }
      ],
      "name": "Transfer",
      "type": "event"
    },
    {
      "anonymous": false,
      "inputs": [
        {
          "indexed": false,
          "internalType": "address",
          "name": "account",
          "type": "address"
        }
      ],
      "name": "Unpaused",
      "type": "event"
    },
    {
      "anonymous": false,
      "inputs": [
        {
          "indexed": false,
          "internalType": "address",
          "name": "userAddress",
          "type": "address"
        },
        {
          "indexed": false,
          "internalType": "uint256",
          "name": "energyProduced",
          "type": "uint256"
        },
        {
          "indexed": false,
          "internalType": "uint256",
          "name": "timestamp",
          "type": "uint256"
        }
      ],
      "name": "energyProduction",
      "type": "event"
    },
    {
      "inputs": [
        {
          "internalType": "address",
          "name": "owner",
          "type": "address"
        },
        {
          "internalType": "address",
          "name": "spender",
          "type": "address"
        }
      ],
      "name": "allowance",
      "outputs": [
        {
          "internalType": "uint256",
          "name": "",
          "type": "uint256"
        }
      ],
      "stateMutability": "view",
      "type": "function"
    },
    {
      "inputs": [
        {
          "internalType": "address",
          "name": "spender",
          "type": "address"
        },
        {
          "internalType": "uint256",
          "name": "amount",
          "type": "uint256"
        }
      ],
      "name": "approve",
      "outputs": [
        {
          "internalType": "bool",
          "name": "",
          "type": "bool"
        }
      ],
      "stateMutability": "nonpayable",
      "type": "function"
    },
    {
      "inputs": [
        {
          "internalType": "address",
          "name": "account",
          "type": "address"
        }
      ],
      "name": "balanceOf",
      "outputs": [
        {
          "internalType": "uint256",
          "name": "",
          "type": "uint256"
        }
      ],
      "stateMutability": "view",
      "type": "function"
    },
    {
      "inputs": [
        {
          "internalType": "uint256",
          "name": "amount",
          "type": "uint256"
        }
      ],
      "name": "burn",
      "outputs": [],
      "stateMutability": "nonpayable",
      "type": "function"
    },
    {
      "inputs": [
        {
          "internalType": "address",
          "name": "account",
          "type": "address"
        },
        {
          "internalType": "uint256",
          "name": "amount",
          "type": "uint256"
        }
      ],
      "name": "burnFrom",
      "outputs": [],
      "stateMutability": "nonpayable",
      "type": "function"
    },
    {
      "inputs": [],
      "name": "decimals",
      "outputs": [
        {
          "internalType": "uint8",
          "name": "",
          "type": "uint8"
        }
      ],
      "stateMutability": "view",
      "type": "function"
    },
    {
      "inputs": [
        {
          "internalType": "address",
          "name": "spender",
          "type": "address"
        },
        {
          "internalType": "uint256",
          "name": "subtractedValue",
          "type": "uint256"
        }
      ],
      "name": "decreaseAllowance",
      "outputs": [
        {
          "internalType": "bool",
          "name": "",
          "type": "bool"
        }
      ],
      "stateMutability": "nonpayable",
      "type": "function"
    },
    {
      "inputs": [
        {
          "internalType": "uint256",
          "name": "amount",
          "type": "uint256"
        }
      ],
      "name": "energyProduced",
      "outputs": [],
      "stateMutability": "nonpayable",
      "type": "function"
    },
    {
      "inputs": [],
      "name": "get",
      "outputs": [
        {
          "components": [
            {
              "internalType": "address",
              "name": "userAddress",
              "type": "address"
            },
            {
              "internalType": "uint256",
              "name": "energyProduced",
              "type": "uint256"
            },
            {
              "internalType": "uint256",
              "name": "timestamp",
              "type": "uint256"
            }
          ],
          "internalType": "struct EnergyToken.Production",
          "name": "",
          "type": "tuple"
        }
      ],
      "stateMutability": "view",
      "type": "function"
    },
    {
      "inputs": [],
      "name": "getAll",
      "outputs": [
        {
          "components": [
            {
              "internalType": "address",
              "name": "userAddress",
              "type": "address"
            },
            {
              "internalType": "uint256",
              "name": "energyProduced",
              "type": "uint256"
            },
            {
              "internalType": "uint256",
              "name": "timestamp",
              "type": "uint256"
            }
          ],
          "internalType": "struct EnergyToken.Production[]",
          "name": "",
          "type": "tuple[]"
        }
      ],
      "stateMutability": "view",
      "type": "function"
    },
    {
      "inputs": [
        {
          "internalType": "address",
          "name": "spender",
          "type": "address"
        },
        {
          "internalType": "uint256",
          "name": "addedValue",
          "type": "uint256"
        }
      ],
      "name": "increaseAllowance",
      "outputs": [
        {
          "internalType": "bool",
          "name": "",
          "type": "bool"
        }
      ],
      "stateMutability": "nonpayable",
      "type": "function"
    },
    {
      "inputs": [],
      "name": "name",
      "outputs": [
        {
          "internalType": "string",
          "name": "",
          "type": "string"
        }
      ],
      "stateMutability": "view",
      "type": "function"
    },
    {
      "inputs": [],
      "name": "owner",
      "outputs": [
        {
          "internalType": "address",
          "name": "",
          "type": "address"
        }
      ],
      "stateMutability": "view",
      "type": "function"
    },
    {
      "inputs": [],
      "name": "pause",
      "outputs": [],
      "stateMutability": "nonpayable",
      "type": "function"
    },
    {
      "inputs": [],
      "name": "paused",
      "outputs": [
        {
          "internalType": "bool",
          "name": "",
          "type": "bool"
        }
      ],
      "stateMutability": "view",
      "type": "function"
    },
    {
      "inputs": [],
      "name": "renounceOwnership",
      "outputs": [],
      "stateMutability": "nonpayable",
      "type": "function"
    },
    {
      "inputs": [],
      "name": "symbol",
      "outputs": [
        {
          "internalType": "string",
          "name": "",
          "type": "string"
        }
      ],
      "stateMutability": "view",
      "type": "function"
    },
    {
      "inputs": [],
      "name": "totalSupply",
      "outputs": [
        {
          "internalType": "uint256",
          "name": "",
          "type": "uint256"
        }
      ],
      "stateMutability": "view",
      "type": "function"
    },
    {
      "inputs": [
        {
          "internalType": "address",
          "name": "to",
          "type": "address"
        },
        {
          "internalType": "uint256",
          "name": "amount",
          "type": "uint256"
        }
      ],
      "name": "transfer",
      "outputs": [
        {
          "internalType": "bool",
          "name": "",
          "type": "bool"
        }
      ],
      "stateMutability": "nonpayable",
      "type": "function"
    },
    {
      "inputs": [
        {
          "internalType": "address",
          "name": "from",
          "type": "address"
        },
        {
          "internalType": "address",
          "name": "to",
          "type": "address"
        },
        {
          "internalType": "uint256",
          "name": "amount",
          "type": "uint256"
        }
      ],
      "name": "transferFrom",
      "outputs": [
        {
          "internalType": "bool",
          "name": "",
          "type": "bool"
        }
      ],
      "stateMutability": "nonpayable",
      "type": "function"
    },
    {
      "inputs": [
        {
          "internalType": "address",
          "name": "newOwner",
          "type": "address"
        }
      ],
      "name": "transferOwnership",
      "outputs": [],
      "stateMutability": "nonpayable",
      "type": "function"
    },
    {
      "inputs": [],
      "name": "unpause",
      "outputs": [],
      "stateMutability": "nonpayable",
      "type": "function"
    },
    {
      "inputs": [
        {
          "internalType": "address",
          "name": "",
          "type": "address"
        }
      ],
      "name": "users",
      "outputs": [
        {
          "internalType": "address",
          "name": "userAddress",
          "type": "address"
        },
        {
          "internalType": "uint256",
          "name": "energyProduced",
          "type": "uint256"
        },
        {
          "internalType": "uint256",
          "name": "timestamp",
          "type": "uint256"
        }
      ],
      "stateMutability": "view",
      "type": "function"
    }
  ],
  "bytecode": "0x60806040523480156200001157600080fd5b506040518060400160405280600f81526020017f566f6c74636861696e20546f6b656e00000000000000000000000000000000008152506040518060400160405280600381526020017f564354000000000000000000000000000000000000000000000000000000000081525081600390805190602001906200009692919062000413565b508060049080519060200190620000af92919062000413565b5050506000600560006101000a81548160ff021916908315150217905550620000ed620000e16200013260201b60201c565b6200013a60201b60201c565b6200012c33620001026200020060201b60201c565b600a62000110919062000682565b620f4240620001209190620007bf565b6200020960201b60201c565b620008d8565b600033905090565b6000600560019054906101000a900473ffffffffffffffffffffffffffffffffffffffff16905081600560016101000a81548173ffffffffffffffffffffffffffffffffffffffff021916908373ffffffffffffffffffffffffffffffffffffffff1602179055508173ffffffffffffffffffffffffffffffffffffffff168173ffffffffffffffffffffffffffffffffffffffff167f8be0079c531659141344cd1fd0a4f28419497f9722a3daafe3b4186f6b6457e060405160405180910390a35050565b60006012905090565b600073ffffffffffffffffffffffffffffffffffffffff168273ffffffffffffffffffffffffffffffffffffffff1614156200027c576040517f08c379a000000000000000000000000000000000000000000000000000000000815260040162000273906200057a565b60405180910390fd5b62000290600083836200038260201b60201c565b8060026000828254620002a49190620005ca565b92505081905550806000808473ffffffffffffffffffffffffffffffffffffffff1673ffffffffffffffffffffffffffffffffffffffff1681526020019081526020016000206000828254620002fb9190620005ca565b925050819055508173ffffffffffffffffffffffffffffffffffffffff16600073ffffffffffffffffffffffffffffffffffffffff167fddf252ad1be2c89b69c2b068fc378daa952ba7f163c4a11628f55a4df523b3ef836040516200036291906200059c565b60405180910390a36200037e60008383620003f260201b60201c565b5050565b62000392620003f760201b60201c565b15620003d5576040517f08c379a0000000000000000000000000000000000000000000000000000000008152600401620003cc9062000558565b60405180910390fd5b620003ed8383836200040e60201b62000e371760201c565b505050565b505050565b6000600560009054906101000a900460ff16905090565b505050565b828054620004219062000837565b90600052602060002090601f01602090048101928262000445576000855562000491565b82601f106200046057805160ff191683800117855562000491565b8280016001018555821562000491579182015b828111156200049057825182559160200191906001019062000473565b5b509050620004a09190620004a4565b5090565b5b80821115620004bf576000816000905550600101620004a5565b5090565b6000620004d2601083620005b9565b91507f5061757361626c653a20706175736564000000000000000000000000000000006000830152602082019050919050565b600062000514601f83620005b9565b91507f45524332303a206d696e7420746f20746865207a65726f2061646472657373006000830152602082019050919050565b620005528162000820565b82525050565b600060208201905081810360008301526200057381620004c3565b9050919050565b60006020820190508181036000830152620005958162000505565b9050919050565b6000602082019050620005b3600083018462000547565b92915050565b600082825260208201905092915050565b6000620005d78262000820565b9150620005e48362000820565b9250827fffffffffffffffffffffffffffffffffffffffffffffffffffffffffffffffff038211156200061c576200061b6200086d565b5b828201905092915050565b6000808291508390505b600185111562000679578086048111156200065157620006506200086d565b5b6001851615620006615780820291505b80810290506200067185620008cb565b945062000631565b94509492505050565b60006200068f8262000820565b91506200069c836200082a565b9250620006cb7fffffffffffffffffffffffffffffffffffffffffffffffffffffffffffffffff8484620006d3565b905092915050565b600082620006e55760019050620007b8565b81620006f55760009050620007b8565b81600181146200070e576002811462000719576200074f565b6001915050620007b8565b60ff8411156200072e576200072d6200086d565b5b8360020a9150848211156200074857620007476200086d565b5b50620007b8565b5060208310610133831016604e8410600b8410161715620007895782820a9050838111156200078357620007826200086d565b5b620007b8565b62000798848484600162000627565b92509050818404811115620007b257620007b16200086d565b5b81810290505b9392505050565b6000620007cc8262000820565b9150620007d98362000820565b9250817fffffffffffffffffffffffffffffffffffffffffffffffffffffffffffffffff04831182151516156200081557620008146200086d565b5b828202905092915050565b6000819050919050565b600060ff82169050919050565b600060028204905060018216806200085057607f821691505b602082108114156200086757620008666200089c565b5b50919050565b7f4e487b7100000000000000000000000000000000000000000000000000000000600052601160045260246000fd5b7f4e487b7100000000000000000000000000000000000000000000000000000000600052602260045260246000fd5b60008160011c9050919050565b6125c680620008e86000396000f3fe608060405234801561001057600080fd5b506004361061014d5760003560e01c806370a08231116100c3578063a457c2d71161007c578063a457c2d714610358578063a87430ba14610388578063a9059cbb146103ba578063db82080e146103ea578063dd62ed3e14610406578063f2fde38b146104365761014d565b806370a08231146102bc578063715018a6146102ec57806379cc6790146102f65780638456cb59146103125780638da5cb5b1461031c57806395d89b411461033a5761014d565b80633950935111610115578063395093511461020c5780633f4ba83a1461023c57806342966c681461024657806353ed5143146102625780635c975abb146102805780636d4ce63c1461029e5761014d565b806306fdde0314610152578063095ea7b31461017057806318160ddd146101a057806323b872dd146101be578063313ce567146101ee575b600080fd5b61015a610452565b6040516101679190612127565b60405180910390f35b61018a600480360381019061018591906119d0565b6104e4565b604051610197919061210c565b60405180910390f35b6101a8610507565b6040516101b59190612324565b60405180910390f35b6101d860048036038101906101d39190611981565b610511565b6040516101e5919061210c565b60405180910390f35b6101f6610540565b604051610203919061233f565b60405180910390f35b610226600480360381019061022191906119d0565b610549565b604051610233919061210c565b60405180910390f35b6102446105f3565b005b610260600480360381019061025b9190611a0c565b610679565b005b61026a61068d565b60405161027791906120ea565b60405180910390f35b610288610756565b604051610295919061210c565b60405180910390f35b6102a661076d565b6040516102b39190612309565b60405180910390f35b6102d660048036038101906102d1919061191c565b61082e565b6040516102e39190612324565b60405180910390f35b6102f4610876565b005b610310600480360381019061030b91906119d0565b6108fe565b005b61031a61091e565b005b6103246109a4565b6040516103319190612098565b60405180910390f35b6103426109ce565b60405161034f9190612127565b60405180910390f35b610372600480360381019061036d91906119d0565b610a60565b60405161037f919061210c565b60405180910390f35b6103a2600480360381019061039d919061191c565b610b4a565b6040516103b1939291906120b3565b60405180910390f35b6103d460048036038101906103cf91906119d0565b610b94565b6040516103e1919061210c565b60405180910390f35b61040460048036038101906103ff9190611a0c565b610bb7565b005b610420600480360381019061041b9190611945565b610cb8565b60405161042d9190612324565b60405180910390f35b610450600480360381019061044b919061191c565b610d3f565b005b606060038054610461906124c1565b80601f016020809104026020016040519081016040528092919081815260200182805461048d906124c1565b80156104da5780601f106104af576101008083540402835291602001916104da565b820191906000526020600020905b8154815290600101906020018083116104bd57829003601f168201915b5050505050905090565b6000806104ef610e3c565b90506104fc818585610e44565b600191505092915050565b6000600254905090565b60008061051c610e3c565b905061052985828561100f565b61053485858561109b565b60019150509392505050565b60006012905090565b600080610554610e3c565b90506105e8818585600160008673ffffffffffffffffffffffffffffffffffffffff1673ffffffffffffffffffffffffffffffffffffffff16815260200190815260200160002060008973ffffffffffffffffffffffffffffffffffffffff1673ffffffffffffffffffffffffffffffffffffffff168152602001908152602001600020546105e391906123af565b610e44565b600191505092915050565b6105fb610e3c565b73ffffffffffffffffffffffffffffffffffffffff166106196109a4565b73ffffffffffffffffffffffffffffffffffffffff161461066f576040517f08c379a000000000000000000000000000000000000000000000000000000000815260040161066690612249565b60405180910390fd5b61067761131c565b565b61068a610684610e3c565b826113be565b50565b60606006805480602002602001604051908101604052809291908181526020016000905b8282101561074d57838290600052602060002090600302016040518060600160405290816000820160009054906101000a900473ffffffffffffffffffffffffffffffffffffffff1673ffffffffffffffffffffffffffffffffffffffff1673ffffffffffffffffffffffffffffffffffffffff16815260200160018201548152602001600282015481525050815260200190600101906106b1565b50505050905090565b6000600560009054906101000a900460ff16905090565b6107756118bb565b600760003373ffffffffffffffffffffffffffffffffffffffff1673ffffffffffffffffffffffffffffffffffffffff1681526020019081526020016000206040518060600160405290816000820160009054906101000a900473ffffffffffffffffffffffffffffffffffffffff1673ffffffffffffffffffffffffffffffffffffffff1673ffffffffffffffffffffffffffffffffffffffff16815260200160018201548152602001600282015481525050905090565b60008060008373ffffffffffffffffffffffffffffffffffffffff1673ffffffffffffffffffffffffffffffffffffffff168152602001908152602001600020549050919050565b61087e610e3c565b73ffffffffffffffffffffffffffffffffffffffff1661089c6109a4565b73ffffffffffffffffffffffffffffffffffffffff16146108f2576040517f08c379a00000000000000000000000000000000000000000000000000000000081526004016108e990612249565b60405180910390fd5b6108fc6000611595565b565b6109108261090a610e3c565b8361100f565b61091a82826113be565b5050565b610926610e3c565b73ffffffffffffffffffffffffffffffffffffffff166109446109a4565b73ffffffffffffffffffffffffffffffffffffffff161461099a576040517f08c379a000000000000000000000000000000000000000000000000000000000815260040161099190612249565b60405180910390fd5b6109a261165b565b565b6000600560019054906101000a900473ffffffffffffffffffffffffffffffffffffffff16905090565b6060600480546109dd906124c1565b80601f0160208091040260200160405190810160405280929190818152602001828054610a09906124c1565b8015610a565780601f10610a2b57610100808354040283529160200191610a56565b820191906000526020600020905b815481529060010190602001808311610a3957829003601f168201915b5050505050905090565b600080610a6b610e3c565b90506000600160008373ffffffffffffffffffffffffffffffffffffffff1673ffffffffffffffffffffffffffffffffffffffff16815260200190815260200160002060008673ffffffffffffffffffffffffffffffffffffffff1673ffffffffffffffffffffffffffffffffffffffff16815260200190815260200160002054905083811015610b31576040517f08c379a0000000000000000000000000000000000000000000000000000000008152600401610b28906122c9565b60405180910390fd5b610b3e8286868403610e44565b60019250505092915050565b60076020528060005260406000206000915090508060000160009054906101000a900473ffffffffffffffffffffffffffffffffffffffff16908060010154908060020154905083565b600080610b9f610e3c565b9050610bac81858561109b565b600191505092915050565b610bc133826116fe565b600660405180606001604052803373ffffffffffffffffffffffffffffffffffffffff16815260200183815260200142815250908060018154018082558091505060019003906000526020600020906003020160009091909190915060008201518160000160006101000a81548173ffffffffffffffffffffffffffffffffffffffff021916908373ffffffffffffffffffffffffffffffffffffffff160217905550602082015181600101556040820151816002015550507fe9163c3fced205c976da93343609d2b9eed45ed99ebbe087394f1a05b368a40f338242604051610cad939291906120b3565b60405180910390a150565b6000600160008473ffffffffffffffffffffffffffffffffffffffff1673ffffffffffffffffffffffffffffffffffffffff16815260200190815260200160002060008373ffffffffffffffffffffffffffffffffffffffff1673ffffffffffffffffffffffffffffffffffffffff16815260200190815260200160002054905092915050565b610d47610e3c565b73ffffffffffffffffffffffffffffffffffffffff16610d656109a4565b73ffffffffffffffffffffffffffffffffffffffff1614610dbb576040517f08c379a0000000000000000000000000000000000000000000000000000000008152600401610db290612249565b60405180910390fd5b600073ffffffffffffffffffffffffffffffffffffffff168173ffffffffffffffffffffffffffffffffffffffff161415610e2b576040517f08c379a0000000000000000000000000000000000000000000000000000000008152600401610e22906121a9565b60405180910390fd5b610e3481611595565b50565b505050565b600033905090565b600073ffffffffffffffffffffffffffffffffffffffff168373ffffffffffffffffffffffffffffffffffffffff161415610eb4576040517f08c379a0000000000000000000000000000000000000000000000000000000008152600401610eab906122a9565b60405180910390fd5b600073ffffffffffffffffffffffffffffffffffffffff168273ffffffffffffffffffffffffffffffffffffffff161415610f24576040517f08c379a0000000000000000000000000000000000000000000000000000000008152600401610f1b906121c9565b60405180910390fd5b80600160008573ffffffffffffffffffffffffffffffffffffffff1673ffffffffffffffffffffffffffffffffffffffff16815260200190815260200160002060008473ffffffffffffffffffffffffffffffffffffffff1673ffffffffffffffffffffffffffffffffffffffff168152602001908152602001600020819055508173ffffffffffffffffffffffffffffffffffffffff168373ffffffffffffffffffffffffffffffffffffffff167f8c5be1e5ebec7d5bd14f71427d1e84f3dd0314c0f7b2291e5b200ac8c7c3b925836040516110029190612324565b60405180910390a3505050565b600061101b8484610cb8565b90507fffffffffffffffffffffffffffffffffffffffffffffffffffffffffffffffff81146110955781811015611087576040517f08c379a000000000000000000000000000000000000000000000000000000000815260040161107e906121e9565b60405180910390fd5b6110948484848403610e44565b5b50505050565b600073ffffffffffffffffffffffffffffffffffffffff168373ffffffffffffffffffffffffffffffffffffffff16141561110b576040517f08c379a000000000000000000000000000000000000000000000000000000000815260040161110290612289565b60405180910390fd5b600073ffffffffffffffffffffffffffffffffffffffff168273ffffffffffffffffffffffffffffffffffffffff16141561117b576040517f08c379a000000000000000000000000000000000000000000000000000000000815260040161117290612149565b60405180910390fd5b61118683838361185e565b60008060008573ffffffffffffffffffffffffffffffffffffffff1673ffffffffffffffffffffffffffffffffffffffff1681526020019081526020016000205490508181101561120c576040517f08c379a000000000000000000000000000000000000000000000000000000000815260040161120390612209565b60405180910390fd5b8181036000808673ffffffffffffffffffffffffffffffffffffffff1673ffffffffffffffffffffffffffffffffffffffff16815260200190815260200160002081905550816000808573ffffffffffffffffffffffffffffffffffffffff1673ffffffffffffffffffffffffffffffffffffffff168152602001908152602001600020600082825461129f91906123af565b925050819055508273ffffffffffffffffffffffffffffffffffffffff168473ffffffffffffffffffffffffffffffffffffffff167fddf252ad1be2c89b69c2b068fc378daa952ba7f163c4a11628f55a4df523b3ef846040516113039190612324565b60405180910390a36113168484846118b6565b50505050565b611324610756565b611363576040517f08c379a000000000000000000000000000000000000000000000000000000000815260040161135a90612169565b60405180910390fd5b6000600560006101000a81548160ff0219169083151502179055507f5db9ee0a495bf2e6ff9c91a7834c1ba4fdd244a5e8aa4e537bd38aeae4b073aa6113a7610e3c565b6040516113b49190612098565b60405180910390a1565b600073ffffffffffffffffffffffffffffffffffffffff168273ffffffffffffffffffffffffffffffffffffffff16141561142e576040517f08c379a000000000000000000000000000000000000000000000000000000000815260040161142590612269565b60405180910390fd5b61143a8260008361185e565b60008060008473ffffffffffffffffffffffffffffffffffffffff1673ffffffffffffffffffffffffffffffffffffffff168152602001908152602001600020549050818110156114c0576040517f08c379a00000000000000000000000000000000000000000000000000000000081526004016114b790612189565b60405180910390fd5b8181036000808573ffffffffffffffffffffffffffffffffffffffff1673ffffffffffffffffffffffffffffffffffffffff1681526020019081526020016000208190555081600260008282546115179190612405565b92505081905550600073ffffffffffffffffffffffffffffffffffffffff168373ffffffffffffffffffffffffffffffffffffffff167fddf252ad1be2c89b69c2b068fc378daa952ba7f163c4a11628f55a4df523b3ef8460405161157c9190612324565b60405180910390a3611590836000846118b6565b505050565b6000600560019054906101000a900473ffffffffffffffffffffffffffffffffffffffff16905081600560016101000a81548173ffffffffffffffffffffffffffffffffffffffff021916908373ffffffffffffffffffffffffffffffffffffffff1602179055508173ffffffffffffffffffffffffffffffffffffffff168173ffffffffffffffffffffffffffffffffffffffff167f8be0079c531659141344cd1fd0a4f28419497f9722a3daafe3b4186f6b6457e060405160405180910390a35050565b611663610756565b156116a3576040517f08c379a000000000000000000000000000000000000000000000000000000000815260040161169a90612229565b60405180910390fd5b6001600560006101000a81548160ff0219169083151502179055507f62e78cea01bee320cd4e420270b5ea74000d11b0c9f74754ebdbfc544b05a2586116e7610e3c565b6040516116f49190612098565b60405180910390a1565b600073ffffffffffffffffffffffffffffffffffffffff168273ffffffffffffffffffffffffffffffffffffffff16141561176e576040517f08c379a0000000000000000000000000000000000000000000000000000000008152600401611765906122e9565b60405180910390fd5b61177a6000838361185e565b806002600082825461178c91906123af565b92505081905550806000808473ffffffffffffffffffffffffffffffffffffffff1673ffffffffffffffffffffffffffffffffffffffff16815260200190815260200160002060008282546117e191906123af565b925050819055508173ffffffffffffffffffffffffffffffffffffffff16600073ffffffffffffffffffffffffffffffffffffffff167fddf252ad1be2c89b69c2b068fc378daa952ba7f163c4a11628f55a4df523b3ef836040516118469190612324565b60405180910390a361185a600083836118b6565b5050565b611866610756565b156118a6576040517f08c379a000000000000000000000000000000000000000000000000000000000815260040161189d90612229565b60405180910390fd5b6118b1838383610e37565b505050565b505050565b6040518060600160405280600073ffffffffffffffffffffffffffffffffffffffff16815260200160008152602001600081525090565b60008135905061190181612562565b92915050565b60008135905061191681612579565b92915050565b60006020828403121561192e57600080fd5b600061193c848285016118f2565b91505092915050565b6000806040838503121561195857600080fd5b6000611966858286016118f2565b9250506020611977858286016118f2565b9150509250929050565b60008060006060848603121561199657600080fd5b60006119a4868287016118f2565b93505060206119b5868287016118f2565b92505060406119c686828701611907565b9150509250925092565b600080604083850312156119e357600080fd5b60006119f1858286016118f2565b9250506020611a0285828601611907565b9150509250929050565b600060208284031215611a1e57600080fd5b6000611a2c84828501611907565b91505092915050565b6000611a418383611fe7565b60608301905092915050565b611a5681612439565b82525050565b611a6581612439565b82525050565b6000611a768261236a565b611a80818561238d565b9350611a8b8361235a565b8060005b83811015611abc578151611aa38882611a35565b9750611aae83612380565b925050600181019050611a8f565b5085935050505092915050565b611ad28161244b565b82525050565b6000611ae382612375565b611aed818561239e565b9350611afd81856020860161248e565b611b0681612551565b840191505092915050565b6000611b1e60238361239e565b91507f45524332303a207472616e7366657220746f20746865207a65726f206164647260008301527f65737300000000000000000000000000000000000000000000000000000000006020830152604082019050919050565b6000611b8460148361239e565b91507f5061757361626c653a206e6f74207061757365640000000000000000000000006000830152602082019050919050565b6000611bc460228361239e565b91507f45524332303a206275726e20616d6f756e7420657863656564732062616c616e60008301527f63650000000000000000000000000000000000000000000000000000000000006020830152604082019050919050565b6000611c2a60268361239e565b91507f4f776e61626c653a206e6577206f776e657220697320746865207a65726f206160008301527f64647265737300000000000000000000000000000000000000000000000000006020830152604082019050919050565b6000611c9060228361239e565b91507f45524332303a20617070726f766520746f20746865207a65726f20616464726560008301527f73730000000000000000000000000000000000000000000000000000000000006020830152604082019050919050565b6000611cf6601d8361239e565b91507f45524332303a20696e73756666696369656e7420616c6c6f77616e63650000006000830152602082019050919050565b6000611d3660268361239e565b91507f45524332303a207472616e7366657220616d6f756e742065786365656473206260008301527f616c616e636500000000000000000000000000000000000000000000000000006020830152604082019050919050565b6000611d9c60108361239e565b91507f5061757361626c653a20706175736564000000000000000000000000000000006000830152602082019050919050565b6000611ddc60208361239e565b91507f4f776e61626c653a2063616c6c6572206973206e6f7420746865206f776e65726000830152602082019050919050565b6000611e1c60218361239e565b91507f45524332303a206275726e2066726f6d20746865207a65726f2061646472657360008301527f73000000000000000000000000000000000000000000000000000000000000006020830152604082019050919050565b6000611e8260258361239e565b91507f45524332303a207472616e736665722066726f6d20746865207a65726f20616460008301527f64726573730000000000000000000000000000000000000000000000000000006020830152604082019050919050565b6000611ee860248361239e565b91507f45524332303a20617070726f76652066726f6d20746865207a65726f2061646460008301527f72657373000000000000000000000000000000000000000000000000000000006020830152604082019050919050565b6000611f4e60258361239e565b91507f45524332303a2064656372656173656420616c6c6f77616e63652062656c6f7760008301527f207a65726f0000000000000000000000000000000000000000000000000000006020830152604082019050919050565b6000611fb4601f8361239e565b91507f45524332303a206d696e7420746f20746865207a65726f2061646472657373006000830152602082019050919050565b606082016000820151611ffd6000850182611a4d565b506020820151612010602085018261206b565b506040820151612023604085018261206b565b50505050565b60608201600082015161203f6000850182611a4d565b506020820151612052602085018261206b565b506040820151612065604085018261206b565b50505050565b61207481612477565b82525050565b61208381612477565b82525050565b61209281612481565b82525050565b60006020820190506120ad6000830184611a5c565b92915050565b60006060820190506120c86000830186611a5c565b6120d5602083018561207a565b6120e2604083018461207a565b949350505050565b600060208201905081810360008301526121048184611a6b565b905092915050565b60006020820190506121216000830184611ac9565b92915050565b600060208201905081810360008301526121418184611ad8565b905092915050565b6000602082019050818103600083015261216281611b11565b9050919050565b6000602082019050818103600083015261218281611b77565b9050919050565b600060208201905081810360008301526121a281611bb7565b9050919050565b600060208201905081810360008301526121c281611c1d565b9050919050565b600060208201905081810360008301526121e281611c83565b9050919050565b6000602082019050818103600083015261220281611ce9565b9050919050565b6000602082019050818103600083015261222281611d29565b9050919050565b6000602082019050818103600083015261224281611d8f565b9050919050565b6000602082019050818103600083015261226281611dcf565b9050919050565b6000602082019050818103600083015261228281611e0f565b9050919050565b600060208201905081810360008301526122a281611e75565b9050919050565b600060208201905081810360008301526122c281611edb565b9050919050565b600060208201905081810360008301526122e281611f41565b9050919050565b6000602082019050818103600083015261230281611fa7565b9050919050565b600060608201905061231e6000830184612029565b92915050565b6000602082019050612339600083018461207a565b92915050565b60006020820190506123546000830184612089565b92915050565b6000819050602082019050919050565b600081519050919050565b600081519050919050565b6000602082019050919050565b600082825260208201905092915050565b600082825260208201905092915050565b60006123ba82612477565b91506123c583612477565b9250827fffffffffffffffffffffffffffffffffffffffffffffffffffffffffffffffff038211156123fa576123f96124f3565b5b828201905092915050565b600061241082612477565b915061241b83612477565b92508282101561242e5761242d6124f3565b5b828203905092915050565b600061244482612457565b9050919050565b60008115159050919050565b600073ffffffffffffffffffffffffffffffffffffffff82169050919050565b6000819050919050565b600060ff82169050919050565b60005b838110156124ac578082015181840152602081019050612491565b838111156124bb576000848401525b50505050565b600060028204905060018216806124d957607f821691505b602082108114156124ed576124ec612522565b5b50919050565b7f4e487b7100000000000000000000000000000000000000000000000000000000600052601160045260246000fd5b7f4e487b7100000000000000000000000000000000000000000000000000000000600052602260045260246000fd5b6000601f19601f8301169050919050565b61256b81612439565b811461257657600080fd5b50565b61258281612477565b811461258d57600080fd5b5056fea2646970667358221220eb9a8cccee6a1d493267d22876e58b5254bad738925a0c1cebb2b1d7c2441d9264736f6c63430008000033",
  "linkReferences": {},
  "deployedLinkReferences": {}
}